{
    "abi": [
        {
            "anonymous": false,
            "inputs": [
                {
                    "indexed": true,
                    "internalType": "address",
                    "name": "previousOwner",
                    "type": "address"
                },
                {
                    "indexed": true,
                    "internalType": "address",
                    "name": "newOwner",
                    "type": "address"
                }
            ],
            "name": "OwnershipTransferred",
            "type": "event"
        },
        {
            "anonymous": false,
            "inputs": [
                {
                    "indexed": false,
                    "internalType": "address",
                    "name": "trader",
                    "type": "address"
                },
                {
                    "indexed": false,
                    "internalType": "address",
                    "name": "subject",
                    "type": "address"
                },
                {
                    "indexed": false,
                    "internalType": "bool",
                    "name": "isBuy",
                    "type": "bool"
                },
                {
                    "indexed": false,
                    "internalType": "uint256",
                    "name": "shareAmount",
                    "type": "uint256"
                },
                {
                    "indexed": false,
                    "internalType": "uint256",
                    "name": "ethAmount",
                    "type": "uint256"
                },
                {
                    "indexed": false,
                    "internalType": "uint256",
                    "name": "protocolEthAmount",
                    "type": "uint256"
                },
                {
                    "indexed": false,
                    "internalType": "uint256",
                    "name": "subjectEthAmount",
                    "type": "uint256"
                },
                {
                    "indexed": false,
                    "internalType": "uint256",
                    "name": "supply",
                    "type": "uint256"
                }
            ],
            "name": "Trade",
            "type": "event"
        },
        {
            "inputs": [
                {
                    "internalType": "address",
                    "name": "gemsSubject",
                    "type": "address"
                },
                {
                    "internalType": "uint256",
                    "name": "amount",
                    "type": "uint256"
                }
            ],
            "name": "buyGems",
            "outputs": [],
            "stateMutability": "payable",
            "type": "function"
        },
        {
            "inputs": [
                {
                    "internalType": "address",
                    "name": "",
                    "type": "address"
                },
                {
                    "internalType": "address",
                    "name": "",
                    "type": "address"
                }
            ],
            "name": "gemsBalance",
            "outputs": [
                {
                    "internalType": "uint256",
                    "name": "",
                    "type": "uint256"
                }
            ],
            "stateMutability": "view",
            "type": "function"
        },
        {
            "inputs": [
                {
                    "internalType": "address",
                    "name": "",
                    "type": "address"
                }
            ],
            "name": "gemsSupply",
            "outputs": [
                {
                    "internalType": "uint256",
                    "name": "",
                    "type": "uint256"
                }
            ],
            "stateMutability": "view",
            "type": "function"
        },
        {
            "inputs": [
                {
                    "internalType": "address",
                    "name": "",
                    "type": "address"
                }
            ],
            "name": "generatedFees",
            "outputs": [
                {
                    "internalType": "uint256",
                    "name": "",
                    "type": "uint256"
                }
            ],
            "stateMutability": "view",
            "type": "function"
        },
        {
            "inputs": [
                {
                    "internalType": "address",
                    "name": "gemsSubject",
                    "type": "address"
                },
                {
                    "internalType": "uint256",
                    "name": "amount",
                    "type": "uint256"
                }
            ],
            "name": "getBuyPrice",
            "outputs": [
                {
                    "internalType": "uint256",
                    "name": "",
                    "type": "uint256"
                }
            ],
            "stateMutability": "view",
            "type": "function"
        },
        {
            "inputs": [
                {
                    "internalType": "address",
                    "name": "gemsSubject",
                    "type": "address"
                },
                {
                    "internalType": "uint256",
                    "name": "amount",
                    "type": "uint256"
                }
            ],
            "name": "getBuyPriceAfterFee",
            "outputs": [
                {
                    "internalType": "uint256",
                    "name": "",
                    "type": "uint256"
                }
            ],
            "stateMutability": "view",
            "type": "function"
        },
        {
            "inputs": [
                {
                    "internalType": "uint256",
                    "name": "supply",
                    "type": "uint256"
                },
                {
                    "internalType": "uint256",
                    "name": "amount",
                    "type": "uint256"
                }
            ],
            "name": "getPrice",
            "outputs": [
                {
                    "internalType": "uint256",
                    "name": "",
                    "type": "uint256"
                }
            ],
            "stateMutability": "pure",
            "type": "function"
        },
        {
            "inputs": [
                {
                    "internalType": "address",
                    "name": "gemsSubject",
                    "type": "address"
                },
                {
                    "internalType": "uint256",
                    "name": "amount",
                    "type": "uint256"
                }
            ],
            "name": "getSellPrice",
            "outputs": [
                {
                    "internalType": "uint256",
                    "name": "",
                    "type": "uint256"
                }
            ],
            "stateMutability": "view",
            "type": "function"
        },
        {
            "inputs": [
                {
                    "internalType": "address",
                    "name": "gemsSubject",
                    "type": "address"
                },
                {
                    "internalType": "uint256",
                    "name": "amount",
                    "type": "uint256"
                }
            ],
            "name": "getSellPriceAfterFee",
            "outputs": [
                {
                    "internalType": "uint256",
                    "name": "",
                    "type": "uint256"
                }
            ],
            "stateMutability": "view",
            "type": "function"
        },
        {
            "inputs": [],
            "name": "owner",
            "outputs": [
                {
                    "internalType": "address",
                    "name": "",
                    "type": "address"
                }
            ],
            "stateMutability": "view",
            "type": "function"
        },
        {
            "inputs": [],
            "name": "protocolFeeDestination",
            "outputs": [
                {
                    "internalType": "address",
                    "name": "",
                    "type": "address"
                }
            ],
            "stateMutability": "view",
            "type": "function"
        },
        {
            "inputs": [],
            "name": "protocolFeePercent",
            "outputs": [
                {
                    "internalType": "uint256",
                    "name": "",
                    "type": "uint256"
                }
            ],
            "stateMutability": "view",
            "type": "function"
        },
        {
            "inputs": [],
            "name": "renounceOwnership",
            "outputs": [],
            "stateMutability": "nonpayable",
            "type": "function"
        },
        {
            "inputs": [
                {
                    "internalType": "address",
                    "name": "gemsSubject",
                    "type": "address"
                },
                {
                    "internalType": "uint256",
                    "name": "amount",
                    "type": "uint256"
                }
            ],
            "name": "sellGems",
            "outputs": [],
            "stateMutability": "payable",
            "type": "function"
        },
        {
            "inputs": [
                {
                    "internalType": "address",
                    "name": "_feeDestination",
                    "type": "address"
                }
            ],
            "name": "setFeeDestination",
            "outputs": [],
            "stateMutability": "nonpayable",
            "type": "function"
        },
        {
            "inputs": [
                {
                    "internalType": "uint256",
                    "name": "_feePercent",
                    "type": "uint256"
                }
            ],
            "name": "setProtocolFeePercent",
            "outputs": [],
            "stateMutability": "nonpayable",
            "type": "function"
        },
        {
            "inputs": [
                {
                    "internalType": "uint256",
                    "name": "_feePercent",
                    "type": "uint256"
                }
            ],
            "name": "setSubjectFeePercent",
            "outputs": [],
            "stateMutability": "nonpayable",
            "type": "function"
        },
        {
            "inputs": [],
            "name": "subjectFeePercent",
            "outputs": [
                {
                    "internalType": "uint256",
                    "name": "",
                    "type": "uint256"
                }
            ],
            "stateMutability": "view",
            "type": "function"
        },
        {
            "inputs": [
                {
                    "internalType": "address",
                    "name": "newOwner",
                    "type": "address"
                }
            ],
            "name": "transferOwnership",
            "outputs": [],
            "stateMutability": "nonpayable",
            "type": "function"
        }
    ],
    "bytecode": {
        "object": "0x608060405234801561001057600080fd5b5061001a3361001f565b61006f565b600080546001600160a01b038381166001600160a01b0319831681178455604051919092169283917f8be0079c531659141344cd1fd0a4f28419497f9722a3daafe3b4186f6b6457e09190a35050565b61111c8061007e6000396000f3fe6080604052600436106101145760003560e01c80638da5cb5b116100a0578063e1cfb02e11610064578063e1cfb02e146102f0578063e6886c271461031d578063ee48048214610330578063f2fde38b1461035d578063fbe532341461037d57600080fd5b80638da5cb5b146102695780639ae7178114610287578063a4983421146102a7578063b468b2ed146102c7578063d6e6eb9f146102da57600080fd5b80634635256e116100e75780634635256e146101ba5780634ce7957c146101da5780635a8a764e146102125780635cf4ee9114610234578063715018a61461025457600080fd5b80630f026f6d146101195780632267a89c1461014c57806324dc441d1461016c5780634338548f14610182575b600080fd5b34801561012557600080fd5b50610139610134366004610f38565b61039d565b6040519081526020015b60405180910390f35b34801561015857600080fd5b50610139610167366004610f38565b610417565b34801561017857600080fd5b5061013960035481565b34801561018e57600080fd5b5061013961019d366004610f62565b600460209081526000928352604080842090915290825290205481565b3480156101c657600080fd5b506101396101d5366004610f38565b610485565b3480156101e657600080fd5b506001546101fa906001600160a01b031681565b6040516001600160a01b039091168152602001610143565b34801561021e57600080fd5b5061023261022d366004610f95565b6104af565b005b34801561024057600080fd5b5061013961024f366004610fae565b6104ec565b34801561026057600080fd5b506102326106ae565b34801561027557600080fd5b506000546001600160a01b03166101fa565b34801561029357600080fd5b506101396102a2366004610f38565b6106c2565b3480156102b357600080fd5b506102326102c2366004610f95565b6106f0565b6102326102d5366004610f38565b610724565b3480156102e657600080fd5b5061013960025481565b3480156102fc57600080fd5b5061013961030b366004610fd0565b60056020526000908152604090205481565b61023261032b366004610f38565b610ada565b34801561033c57600080fd5b5061013961034b366004610fd0565b60066020526000908152604090205481565b34801561036957600080fd5b50610232610378366004610fd0565b610dcf565b34801561038957600080fd5b50610232610398366004610fd0565b610e48565b6000806103aa8484610485565b90506000670de0b6b3a7640000600254836103c59190611001565b6103cf9190611018565b90506000670de0b6b3a7640000600354846103ea9190611001565b6103f49190611018565b905080610401838561103a565b61040b919061103a565b93505050505b92915050565b60008061042484846106c2565b90506000670de0b6b3a76400006002548361043f9190611001565b6104499190611018565b90506000670de0b6b3a7640000600354846104649190611001565b61046e9190611018565b90508061047b838561104d565b61040b919061104d565b6001600160a01b0382166000908152600560205260408120546104a890836104ec565b9392505050565b6104b7610e72565b670de0b6b3a764000081106104e75760405162461bcd60e51b81526004016104de90611060565b60405180910390fd5b600355565b600080821161053d5760405162461bcd60e51b815260206004820181905260248201527f416d6f756e74206d7573742062652067726561746572207468616e207a65726f60448201526064016104de565b600083118061054c5750816001145b6105985760405162461bcd60e51b815260206004820181905260248201527f537570706c79206d7573742062652067726561746572207468616e207a65726f60448201526064016104de565b600083156105f25760066105ad60018661104d565b6105b8906002611001565b6105c390600161103a565b856105cf60018261104d565b6105d99190611001565b6105e39190611001565b6105ed9190611018565b6105f5565b60005b90506000841580156106075750836001145b61067c5760068461061960018861104d565b610623919061103a565b61062e906002611001565b61063990600161103a565b610643868861103a565b8661064f60018a61104d565b610659919061103a565b6106639190611001565b61066d9190611001565b6106779190611018565b61067f565b60005b9050600061068d838361104d565b9050613e806106a482670de0b6b3a7640000611001565b61040b9190611018565b6106b6610e72565b6106c06000610ecc565b565b6001600160a01b0382166000908152600560205260408120546104a8906106ea90849061104d565b836104ec565b6106f8610e72565b670de0b6b3a7640000811061071f5760405162461bcd60e51b81526004016104de90611060565b600255565b6001600160a01b0382166000908152600560205260409020548015158061075357506001600160a01b03831633145b6107b65760405162461bcd60e51b815260206004820152602e60248201527f4f6e6c79207468652067656d7327207375626a6563742063616e20627579207460448201526d686520666972737420736861726560901b60648201526084016104de565b60006107c282846104ec565b90506000670de0b6b3a7640000600254836107dd9190611001565b6107e79190611018565b90506000670de0b6b3a7640000600354846108029190611001565b61080c9190611018565b905080610819838561103a565b610823919061103a565b3410156108695760405162461bcd60e51b8152602060048201526014602482015273125b9cdd59999a58da595b9d081c185e5b595b9d60621b60448201526064016104de565b6001600160a01b038616600090815260046020908152604080832033845290915290205461089890869061103a565b6001600160a01b03871660009081526004602090815260408083203384529091529020556108c6858561103a565b6001600160a01b0387166000908152600560209081526040808320939093556006905220546108f690829061103a565b6001600160a01b0387166000908152600660205260409020557f2c76e7a47fd53e2854856ac3f0a5f3ee40d15cfaa82266357ea9779c486ab9c33387600188878787610942848d61103a565b6040516109569897969594939291906110a2565b60405180910390a16001546040516000916001600160a01b03169084908381818185875af1925050503d80600081146109ab576040519150601f19603f3d011682016040523d82523d6000602084013e6109b0565b606091505b505090506000876001600160a01b03168360405160006040518083038185875af1925050503d8060008114610a01576040519150601f19603f3d011682016040523d82523d6000602084013e610a06565b606091505b5090915060009050338486610a1b893461104d565b610a25919061104d565b610a2f919061104d565b6040515b60006040518083038185875af1925050503d8060008114610a70576040519150601f19603f3d011682016040523d82523d6000602084013e610a75565b606091505b50509050828015610a835750815b8015610a8c5750805b610acf5760405162461bcd60e51b8152602060048201526014602482015273556e61626c6520746f2073656e642066756e647360601b60448201526064016104de565b505050505050505050565b6001600160a01b038216600090815260056020526040902054818111610b425760405162461bcd60e51b815260206004820152601a60248201527f43616e6e6f742073656c6c20746865206c61737420736861726500000000000060448201526064016104de565b6000610b57610b51848461104d565b846104ec565b90506000670de0b6b3a764000060025483610b729190611001565b610b7c9190611018565b90506000670de0b6b3a764000060035484610b979190611001565b610ba19190611018565b6001600160a01b0387166000908152600460209081526040808320338452909152902054909150851115610c0b5760405162461bcd60e51b8152602060048201526011602482015270496e73756666696369656e742067656d7360781b60448201526064016104de565b6001600160a01b0386166000908152600460209081526040808320338452909152902054610c3a90869061104d565b6001600160a01b0387166000908152600460209081526040808320338452909152902055610c68858561104d565b6001600160a01b038716600090815260056020908152604080832093909355600690522054610c9890829061103a565b6001600160a01b0387166000908152600660205260408120919091557f2c76e7a47fd53e2854856ac3f0a5f3ee40d15cfaa82266357ea9779c486ab9c3903390889088878787610ce8848d61104d565b604051610cfc9897969594939291906110a2565b60405180910390a160003382610d12858761104d565b610d1c919061104d565b604051600081818185875af1925050503d8060008114610d58576040519150601f19603f3d011682016040523d82523d6000602084013e610d5d565b606091505b50506001546040519192506000916001600160a01b039091169085908381818185875af1925050503d8060008114610db1576040519150601f19603f3d011682016040523d82523d6000602084013e610db6565b606091505b505090506000886001600160a01b031684604051610a33565b610dd7610e72565b6001600160a01b038116610e3c5760405162461bcd60e51b815260206004820152602660248201527f4f776e61626c653a206e6577206f776e657220697320746865207a65726f206160448201526564647265737360d01b60648201526084016104de565b610e4581610ecc565b50565b610e50610e72565b600180546001600160a01b0319166001600160a01b0392909216919091179055565b6000546001600160a01b031633146106c05760405162461bcd60e51b815260206004820181905260248201527f4f776e61626c653a2063616c6c6572206973206e6f7420746865206f776e657260448201526064016104de565b600080546001600160a01b038381166001600160a01b0319831681178455604051919092169283917f8be0079c531659141344cd1fd0a4f28419497f9722a3daafe3b4186f6b6457e09190a35050565b80356001600160a01b0381168114610f3357600080fd5b919050565b60008060408385031215610f4b57600080fd5b610f5483610f1c565b946020939093013593505050565b60008060408385031215610f7557600080fd5b610f7e83610f1c565b9150610f8c60208401610f1c565b90509250929050565b600060208284031215610fa757600080fd5b5035919050565b60008060408385031215610fc157600080fd5b50508035926020909101359150565b600060208284031215610fe257600080fd5b6104a882610f1c565b634e487b7160e01b600052601160045260246000fd5b808202811582820484141761041157610411610feb565b60008261103557634e487b7160e01b600052601260045260246000fd5b500490565b8082018082111561041157610411610feb565b8181038181111561041157610411610feb565b60208082526022908201527f4665652070657263656e74206d757374206265206c657373207468616e203130604082015261302560f01b606082015260800190565b6001600160a01b03988916815296909716602087015293151560408601526060850192909252608084015260a083015260c082015260e0810191909152610100019056fea264697066735822122065a413e55ae1f5d5422eb26bf85f687d6a7eedf09234168a93dd8a26347e90fd64736f6c63430008150033",
        "linkReferences": {}
    },
    "methodIdentifiers": {
        "buyGems(address,uint256)": "b468b2ed",
        "gemsBalance(address,address)": "4338548f",
        "gemsSupply(address)": "e1cfb02e",
        "generatedFees(address)": "ee480482",
        "getBuyPrice(address,uint256)": "4635256e",
        "getBuyPriceAfterFee(address,uint256)": "0f026f6d",
        "getPrice(uint256,uint256)": "5cf4ee91",
        "getSellPrice(address,uint256)": "9ae71781",
        "getSellPriceAfterFee(address,uint256)": "2267a89c",
        "owner()": "8da5cb5b",
        "protocolFeeDestination()": "4ce7957c",
        "protocolFeePercent()": "d6e6eb9f",
        "renounceOwnership()": "715018a6",
        "sellGems(address,uint256)": "e6886c27",
        "setFeeDestination(address)": "fbe53234",
        "setProtocolFeePercent(uint256)": "a4983421",
        "setSubjectFeePercent(uint256)": "5a8a764e",
        "subjectFeePercent()": "24dc441d",
        "transferOwnership(address)": "f2fde38b"
    },
    "id": 20
}